:100000000C9491040C9484140C94D8040C94D8048B
:100010000C94D8040C94D8040C94D8040C94D804F0
:100020000C94D8040C94D8040C94A2280C94752930
:100030000C9403220C94D8040C94D8040C94D80487
:100040000C94D8040C94D8040C94D8040C94D804C0
:100050000C94D8040C946B220C94D8040C94D804FF
:100060000C94D8040C94D8040C94D8040C94D804A0
:100070000C94D8040C94D8040C94D8040C94D80490
:100080000C94D8040C94D8040C94D8040C94D80480
:100090000C94D8040C94D8040C94D8040C94D80470
:1000A0000C94D8040C94D8040C94D80407634236FA
:1000B000B79BD8A71A39685618AEBAAB558C1D3CF9
:1000C000B7CC5763BD6DEDFD753EF6177231BF00BD
:1000D0000000803F05A84CCDB2D44EB93836A902F5
:1000E0000C50B9918688083CA6AAAA2ABE00000036
:1000F000803F29001E001F002000210022002B004D
:1001000014001A00080015001700E1000400160092
:10011000070009000A00E0001D001B00060019008E
:100120000500000000004A00E300F15C28002A00FE
:1001300027002600250024002300310013001200B0
:100140000C0018001C00340033000F000E000D00DE
:100150000B00E500380037003600100011000000E9
:1001600000004D00E200F25C2C00000000000000E6
:10017000000000000000000000000000000000007F
:10018000000000000000000000000000000000006F
:10019000000000000000000000000000000000005F
:1001A000000000000000000000000000000000004F
:1005A000000035021E021F02200221022202010069
:1005B0001E001F0020002100220001000100010098
:1005C000010001000100E20801000100010001003A
:1005D00001000000000001000100010001004C00CA
:1005E00027022602250224022302010027002600FA
:1005F00025002400230021024F005200510050002A
:100600002700390001004B004E00010001000000EE
:10061000000001000100F35C010045003A003B00CE
:100620003C003D003E0001001E021F02200221028C
:10063000220201002D02560067002E022F00010049
:1006400001000100010035022F020000000035000A
:10065000010001000100440043004200410040004D
:100660003F00010027022602250224022302010086
:10067000300A010001002F0A30000100300801009B
:1006800001002F08300200000000350201000100C7
:100690000100010001000100010001000100010052
:1006A0000100010001000100010001000100010042
:1006B0000100010001000100010001000100010032
:1006C0000100000000000100010001000100010024
:1006D0000100010001000100010001000100010012
:1006E0000100010001000100BB00A900AA00BC003C
:1006F00001000100010001000100010001000000F3
:100700000000AE0001000100010000047F3F1F64F3
:100710003214643214783C1E1E140A056801F0007D
:10072000B40078005A00000000000001010101013E
:10073000010101010202020202020202020303039A
:100740000303030303040404040404050505050569
:100750000606060606070707070808080809090924
:100760000A0A0A0A0B0B0B0C0C0C0D0D0D0E0E0FCA
:100770000F0F101011111112121313141415151656
:10078000161717181819191A1A1B1C1C1D1D1E1FC5
:100790001F20202122222324252526272728292A15
:1007A0002B2B2C2D2E2F2F3031323334353636373C
:1007B00038393A3B3C3D3E3F40414243444647483E
:1007C000494A4B4C4D4F50515253555657585A5B0E
:1007D0005C5E5F606263646667696A6C6D6E7071AF
:1007E00073747678797B7C7E8081838486888A8B1B
:1007F0008D8F91929496989A9B9D9FA1A3A5A7A94E
:10080000ABADAFB1B3B5B7B9BBBDBFC1C4C6C8CA44
:10081000CCCFD1D3D6D8DADCDFE1E4E6E8EBEDF0FB
:10082000F2F5F7FAFCFF0403300000001C03490056
:1008300072006900730020004B00650079006200BF
:100840006F0061007200640000000E034B00650041
:100850006500620069006F000000040309040902DA
:100860003B00020100A0FA0904000001030101009D
:100870000921110100012240000705810308000A37
:1008800009040100010300000009211101000122F7
:1008900036000705820320000A1201100100000043
:1008A0000810CB561200020102030105010980A1C4
:1008B0000185031601002603001A81002A830075B2
:1008C0001095018100C0050C0901A10185041601E4
:1008D00000269C021A01002A9C02751095018100D5
:1008E000C005010906A101050719E029E715002542
:1008F00001950875018102950175088101050819A6
:100900000129059505750191029501750391010570
:1009100007190029FF150026FF00950675088100BC
:10092000C00011241FBECFEFDAE0DEBFCDBF04B69A
:1009300003FE27C080914B0290914C02A0914D0282
:10094000B0914E028730904BA740B04BD1F410923B
:100950004B0210924C0210924D0210924E0214BEA5
:1009600084B7877F84BF0FB6F894A8958091600004
:10097000886180936000109260000FBEE0E0F8E3B1
:10098000099511E0A0E0B1E0E6E8FEE502C00590BF
:100990000D92A433B107D9F722E0A4E3B1E001C07E
:1009A0001D92AB34B207E1F70E94CF250C94412F82
:1009B0000C940000CF93FB01813F2CE59207E1F0FE
:1009C00028F4803F9C4581F0C1E02CC0823F2CE59B
:1009D0009207F1F0833F9C45B9F7C2818CE0CC23AC
:1009E00021F10E94A31E06C0C281CC23D9F080E071
:1009F0000E941C05C0E016C0C2818AE0CC2359F0D9
:100A00000E94A31E4CE06BE08AE00E948305F2CFB7
:100A1000C2818BE0F3CF0E94C41E4CE06BE08AE001
:100A20000E9483058C2FCF9108950E94C41EFACF97
:100A300081E008950C94DA04CF93DF93C1E0D0E015
:100A400002C0CC0FDD1F8A95E2F78C2F0E94F520A3
:100A5000BE0190E080E0DF91CF910C94411E8F9217
:100A60009F92AF92BF92CF92DF92EF92FF920F933D
:100A70001F936B017C0181E090E0A0E0B0E04C01AD
:100A80005D0104C0880C991CAA1CBB1C4A95D2F7B6
:100A9000B501A4014C015D0104C0880C991CAA1C7D
:100AA000BB1C2A95D2F7482959296A297B2904C0F9
:100AB000880F991FAA1FBB1F0A95D2F78A019B01B5
:100AC0000C211D212E213F2104171507260737076A
:100AD00089F48C299D29AE29BF29BC01CD011F9124
:100AE0000F91FF90EF90DF90CF90BF90AF909F90CD
:100AF0008F90089580959095A095B0958C219D211B
:100B0000AE21BF21EACF0F93382F262F6091E90144
:100B10007091EA018091EB019091EC01042F432F39
:100B20000E942F050F910C947D1E0C94720BCF9296
:100B3000DF92EF92FF92863028F5811124C09091C8
:100B400080009F7790938000282F30E0AFEFBFEFB9
:100B50000E94D22E25E030E040E050E00E94AA2E14
:100B6000C9012C3764E1360790F469E070E00E9417
:100B7000822E7093890060938800FF90EF90DF9041
:100B8000CF90089585E0909180009068DBCF2A5047
:100B9000374D4F4F5F4F942F832F722F662725EFCE
:100BA00038E241E050E00E94AA2E69017A01CA01B0
:100BB000B9010E94722E9B01AC01C701B6010E94CF
:100BC000722E672F782F892F99276115710521E0E3
:100BD0008207910571F66FEF7FEFCBCF259A2D98A5
:100BE00082E88093800089E1809381008FEF9FEFFE
:100BF00090938700809386000C949B230E94E220B0
:100C0000811102C00E946A210E94EE050C946F0BB4
:100C100008950C9408060C94090608950E944E1A33
:100C20000E940D062FEF84E39CE02150804090400D
:100C3000E1F700C0000087E797E7909301088093F1
:100C400000080C949122FF920F931F93CF93DF9390
:100C50008C01FC01C081D18180918801811149C042
:100C60008281882309F440C0CE010E949B1FF82E88
:100C7000682FCE010E943F1FBE018F2D0E94C10828
:100C8000EC01B8010E941A05882309F4D6C0CC3CB7
:100C9000FCE5DF0709F41FC108F070C0C43C9CE507
:100CA000D90709F4F4C008F048C0C531FCE5DF07F6
:100CB00028F5C2308CE5D80708F06AC1C1159CE55B
:100CC000D90709F4B5C0C130DC4509F4BDC081E0E5
:100CD0008093390180933A01C801DF91CF911F9130
:100CE0000F91FF900C941805CE010E946F1FF82EF3
:100CF000C3CFCE010E949B1FBE01C0CFC23CFCE50A
:100D0000DF0709F4B2C008F0B7C0C631DC45F9F618
:100D10000E943020F8019281992309F424C28A7A32
:100D200091E009F490E09093340181111AC289E2B4
:100D30000E940B200E947F2080C0F8018281C83C65
:100D4000FCE5DF0709F4B8C060F4C63CECE5DE075B
:100D500009F4ADC008F4A6C081116FC00E947D0FD8
:100D60006CC0CA3C9CE5D90709F4B0C008F4A9C01E
:100D7000882309F462C00E94000E5FC0C43DFCE5F8
:100D8000DF0709F4EEC040F5F8018281C03DFCE5C3
:100D9000DF0709F4BCC0A8F4CE3CECE5DE0709F49B
:100DA000A9C008F4A0C0882309F447C00E94F70D29
:100DB000863028F00E94F70D883008F470C086E075
:100DC00096C0C23D9CE5D90709F4BDC008F4ADC08A
:100DD000882399F188E18BC0C93DFCE5DF0709F460
:100DE000A5C188F4C73D9CE5D90709F455C108F0B1
:100DF0007AC1C53DDC4509F06ACFF80182818823BC
:100E0000E1F083E274C0CD3D8CE5D80709F4B9C0A8
:100E1000CE3D9CE5D90711F1CC3DDC4509F057CF1B
:100E2000F8018281882349F080E00E946A2605C08B
:100E3000F801828181110E940E0680E0DF91CF913E
:100E40001F910F91FF900895F80182818823A9F3E3
:100E50008091FE0181608093FE01EFCFF8018281D5
:100E6000882359F30E946A21E8CFF8018281811119
:100E7000E4CF0E949F10E1CFF80182818823E9F23C
:100E80000E943020827259F00E943B10D6CFF801A8
:100E90008281882391F20E9430208272A9F30E94FD
:100EA0002D10CBCF8111C9CF0E943D0FC6CF81112C
:100EB000C4CF0E94600FC1CF8111BFCF0E949A0F93
:100EC000BCCF8111BACF0E94B70FB7CF8111B5CF78
:100ED0000E94D40FB2CFF8018281882309F4ADCFEC
:100EE0000E94150EAACF882309F4A7CF81E00E94A3
:100EF0003E10A3CF882309F4A0CF0E94F70D8230C3
:100F000020F00E94F70D853050F282E0F0CF882368
:100F100009F493CF0E94F70D893028F00E94F70D55
:100F20008E3008F4BCCF89E0E2CF882309F485CF66
:100F30000E94F70D8F3028F00E94F70D843108F4DD
:100F4000AECF8FE0D4CF882309F477CF0E94F70D7E
:100F5000853128F00E94F70D873108F4A0CF85E194
:100F6000C6CFF8018281882309F467CF0E94F70D6C
:100F7000893128F00E94F70D823208F490CF89E180
:100F8000B6CFF8018281882309F457CF82E04DCF94
:100F9000F8018281882309F49FCE0E94E22081110A
:100FA00002C00E946A210E94FA2090E090933C02C5
:100FB00080933B02FE01E350FC4580913B0281603F
:100FC000E231F105C8F4E951F84F0C94CC2EF90741
:100FD000050809080D081108150819081D08210839
:100FE000250829082D083108350839083D08410829
:100FF000450880913B02826080933B0280913B02D6
:101000000E94FE200E944E1A18CF80913B028460FD
:10101000F3CF80913B028860EFCF80913B028061EB
:10102000EBCF80913B028062E7CF80913B028064EE
:10103000E3CF80913B028068DFCF80913B028460E8
:10104000EACF80913B028E7FD7CF80913B028D7F8C
:10105000D3CF80913B028B7FCFCF80913B02877FA4
:10106000CBCF80913B028F7EC7CF80913B028F7D9B
:10107000C3CF80913B028F7BBFCF80913B028F77A4
:10108000BBCF80913B028B7FEACF90913B02892FAF
:1010900097FB87F98058B0CFF8018281882361F0EF
:1010A000109239010E9435229093360180933501C8
:1010B00082E00E949517C1CE8091390181110FC045
:1010C00080913501909136010E944122883C910522
:1010D00030F486E20E94611686E20E94461782E0A2
:1010E0000E949C17AACEF8018281882351F01092A9
:1010F0003A010E943522909338018093370180E2B3
:10110000D8CF80913A0181110FC080913701909121
:1011100038010E944122883C910530F487E20E9408
:10112000611687E20E94461780E2DACFF8018281D9
:101130008111DDCF80913A018111F6CF8091370185
:10114000909138010E944122883C910568F780E225
:101150000E949C1788E20E94611688E20E9446174E
:101160006CCE85E3E5CD80913401811104C089E224
:101170000E941220DFCD85E3FBCF90E080E0089550
:101180000895972F70E026E0929F600D711D112445
:10119000FB019CE3899FE00DF11D1124EE0FFF1F61
:1011A000EE50FF4F859194910895FC01EE0FFF1FC3
:1011B000E65FF84F859194910895CF93DF930E9455
:1011C000C1080E94CB0AEC018115914508F04BC083
:1011D000C11580E5D80708F036C1C83ED10510F525
:1011E000C03ED10580F5C83AD10570F4C53AD105A5
:1011F00008F0B4C0C130D10531F118F0C430D105C8
:1012000010F5D0E0C0E01FC0CF3BD10508F4B1C05D
:10121000CE01805C9109C03CD10598F30E94D508AD
:10122000EC0111C0C11520E3D20788F4C11580E29A
:10123000D80708F0FFC0C03FD10518F3CF3FD10554
:1012400009F008F4F5C0CE01DF91CF910895C115E2
:1012500020E4D20708F0F4C0CE019927D3FFEDC0F7
:10126000EC01D86CF0CFC11589E5D80768F5C11538
:1012700028E5D20708F030C1C11584E5D80778F415
:10128000C11523E5D20708F00EC1C11582E5D807C4
:1012900008F0F5C0DC2FCC27C16FD06AD4CFC115C0
:1012A00025E5D20708F413C1C11586E5D80708F073
:1012B000A8CF8C2F0E944B0BC82FD0E0DC2FCC275F
:1012C000CC27DF71D062BFCFCD3B2CE5D20709F42C
:1012D0000EC1F0F4CB3B2CE5D20709F402C108F0B3
:1012E00003C1C1152AE5D20708F08BCF8C2F8F7070
:1012F0000E944B0B34E0D695C7953A95E1F7CF7035
:10130000D0E0DC2FCC27D06A8F70806EC82B9BCFAB
:10131000C03C8CE5D80709F4F0C060F4CE3B8CE506
:10132000D80709F4E7C0CF3BDC4509F06ACFC0E03D
:10133000D2ED89CFCE0190568115904208F061CF51
:101340008D2F8F710E944B0BDD27D06290E0982F7C
:10135000882788279F71C82BD92B75CFC53AD1050F
:1013600009F4CEC0C63AD10509F4CDC0C3E8D0E433
:101370006ACFC83AD10509F4C9C0C93AD10509F400
:10138000C8C0CA3AD10509F4C7C0CB3AD10509F49F
:10139000C6C0CC3AD10509F4C5C0CB3BD10509F490
:1013A000C4C0CC3BD10509F4C3C0CD3AD10509F482
:1013B000C2C0C03BD10509F4C1C0CE3AD10509F481
:1013C000C0C0CF3AD10509F4BFC0C13BD10509F473
:1013D000BEC0C23BD10509F4BDC0C33BD10509F471
:1013E000BCC0C43BD10509F4BBC0C53BD10509F461
:1013F000BAC0C63BD10509F4B9C0C73BD10509F451
:10140000B8C0C83BD10509F4B7C0C93BD10509F440
:10141000B6C0CD3BD10509F4B5C0CE3BD10509F42A
:10142000B4C0CA3BD10509F0B3C0CAE2D6E40BCFC1
:10143000D06509CFCE019F70F1CEEC01D06C03CF07
:10144000DF70D06A00CFCE01F4E096958795FA95CB
:10145000E1F783709C2F937021E030E002C0220FEF
:10146000331F9A95E2F73C68382BC695C695C37032
:1014700080E2C89FE0011124C22BD32BE4CECE0121
:101480008370992721E030E002C0220F331F8A9534
:10149000E2F7C695C69580E2C89FE0011124C22BF1
:1014A000D32BDC68D0CECE018370992721E030E0C9
:1014B00002C0220F331F8A95E2F7C695C69580E2D7
:1014C000C89FE0011124C22BD32BDA68BCCEDC2FDD
:1014D000CC27C46FD06AB7CEDC2FCC27C06FD06AC0
:1014E000B2CEC0E0D4EDAFCEC0E0D5EDACCEC0E022
:1014F000D1EDA9CEC0E0D0EDA6CEC0E0D3EDA3CE15
:10150000C1E8D0E4A0CEC2E8D0E49DCEC2EED4E4DF
:101510009ACEC9EED4E497CECAEED4E494CEC5EB0D
:10152000D4E491CEC6EBD4E48ECEC3EBD4E48BCE20
:10153000C4EBD4E488CEC7EBD4E485CECCECD4E4C1
:1015400082CECDECD4E47FCEC3E8D5E47CCECAE82D
:10155000D5E479CEC2E9D5E476CEC4E9D5E473CE3C
:10156000C1E2D6E470CEC3E2D6E46DCEC4E2D6E4E6
:101570006ACEC5E2D6E467CEC6E2D6E464CEC7E260
:10158000D6E461CECFE6D4E45ECEC0E7D4E45BCE51
:10159000C0E0D4E458CE8238910549F1B0F48133EB
:1015A000910509F45CC048F48932910509F452C0F0
:1015B0008A32910509F458C008958533910509F4DC
:1015C00044C08933910599F00895833E910531F126
:1015D00038F4803E910591F0823E9105B1F0089576
:1015E000863E910511F1873E910541F108952091C4
:1015F0003B022370C9F080EE90E0089520913B02F9
:1016000020FF12C089E390E0089520913B0222FF61
:101610000BC024FF2EC090E080E0089520913B0293
:1016200022FD2AC024FDF7CF089520913B0223FF1D
:10163000FBCF24FDF0CF87EE90E0089520913B0290
:1016400023FFF0CF86EE90E0089520913B0225FD28
:1016500016C0089520913B0225FD14C008952091E5
:101660003B0226FD12C0089520913B0226FD10C0CA
:10167000089583EE90E0089582EE90E0089589E267
:1016800090E0089585E390E008958AE290E008955F
:1016900081E390E0C9CF90913B0292FF06C0282FD2
:1016A0002871283069F4877F846093FF06C0282F53
:1016B0002871283161F4877E846194FD877E0895C6
:1016C000282F2471243089F78B7F8860EECF282F54
:1016D0002471243191F78B7E8861EFCF08950C94AB
:1016E0006E0B08950C94710B0895E82FF0E0EF5BFA
:1016F000FE4F808108950895CF93DF938091FE017E
:10170000836088608093FE018091000180910001D8
:1017100095E0811190E090930D0285E0891B809304
:101720000C02A9E2B1E061E070E08D91E82FE29552
:10173000EF70F0E041A18F709B0101C0220F8A95EC
:10174000EAF7922F9095942391A382A1822B82A3F2
:1017500081E0AE32B80749F7A3E2B1E049E251E0D7
:10176000C1E0D0E08D91E82FE295EF70F0E061A14B
:101770008F709E0101C0220F8A95EAF7922F9095F3
:10178000962391A382A1822B82A34A175B0751F76C
:10179000E1E4F1E08BE491E011928E179F07E1F70D
:1017A00085E00E94880CDF91CF910C94FE05AF92EA
:1017B000BF92CF92DF92EF92FF920F931F93CF933E
:1017C000DF93ACE3B1E0E9E2AE2EE1E0BE2E20E033
:1017D00041E050E0DC901C92E50189915E01E82F28
:1017E000E295EF70F0E091A18F70BA0101C0660F31
:1017F0008A95EAF7892F862B81A392A1C62EC094E1
:101800009C2192A3D0EADA95F1F703E211E090E08F
:1018100080E0E80139918E01E32EE2947FE0E72237
:10182000F12CE701E8A0F12C3F7002C0F594E79499
:101830003A95E2F7E0FC36C07A01082E01C0EE0CC2
:101840000A94EAF73C913E293C9301968630910533
:1018500001F781A18C2181A382A1862B82A381E043
:101860009C919D1101C080E0282B1196DEE2AD16FF
:10187000D1E0BD0609F0AECF60910D0270E06F5B64
:101880007E4F45E08CE391E00E94890C81E0DF917E
:10189000CF911F910F91FF90EF90DF90CF90BF906D
:1018A000AF900895E12CCECFCF930E94D70BC82FD5
:1018B0000E94BE0C882311F180910C0290E08F5B96
:1018C0009E4F0E94F40C811116C080913B018F5FE6
:1018D00080933B01863050F0E0910C02F0E0EF5B2A
:1018E000FE4F108211821282138214820E9495058B
:1018F0008C2FCF91089510923B01F8CF80910D026B
:1019000090E08F5B9E4F0E94160D0E94740BF0CFEB
:101910000895FF920F931F93CF93DF938C01F62EC0
:10192000D72FC42F222349F081E080934D010E94DC
:10193000352290934C0180934B0180914D01882377
:10194000A1F080914B0190914C010E944122069799
:1019500060F0EF2DFD2FD801D0E0CD01801B910B61
:101960008C179D0744F010924D01DF91CF911F918C
:101970000F91FF9008958D918193EFCF80914E014B
:10198000811110C08091D80080618093D8008AE1D5
:101990008A95F1F700C08091D90080FD0AC082E0ED
:1019A00080934E0181E090914E01913009F080E0EA
:1019B000089581E0F5CF0C94BE0C0E94DB0C80935F
:1019C00000010E94BE0C81110C94E80C0C94EE0CEA
:1019D00061E070E081E091E00C94351461E070E02A
:1019E00081E091E00C943C14CF93DF93D82FC92F62
:1019F0000E94D6140097C1F4ED2FFC2FDC01AF5AE2
:101A0000BE4F2C912193019685309105B9F78091B5
:101A10003D0280FF07C086958093500181E0DF91F1
:101A2000CF91089580E0F8CF80E0F9CF30E020E05A
:101A3000FC014191CF01F901EF5AFE4F40832F5F26
:101A40003F4F25303105A1F7809150010C94970547
:101A5000CF92DF92EF92FF920F931F93CF93DF937A
:101A6000E901662309F466C0E42EF12CEFEFF0E003
:101A7000E61BF109EE9D8001EF9D100DFE9D100DFE
:101A80001124212FE12FFF27EE1AFF0A5CE3C52E58
:101A9000D12CB6010E94822EFB01BC01E69EC00142
:101AA000E79E900DF69E900D1124B6010E94822EA5
:101AB000E230F10589F168F4812F262F210F30974C
:101AC00081F0242F461B319761F080E020E040E058
:101AD00008C0E430F10551F128F1842F861B3597B9
:101AE000A1F7E42FF0E0EA5DF84F4491E22FF0E037
:101AF000EA5DF84F9491E82FF0E0EA5DF84FE49149
:101B000049839883EA83DF91CF911F910F91FF90D2
:101B1000EF90DF90CF900895862F810FE42F412F13
:101B20002E2FDFCFE42FE61B842FF9CF842F462FF3
:101B3000410FD7CF842F242FD4CF80910E02982F1E
:101B40009E7739F58178826080930E0230910E0283
:101B5000432F441F4427441F20910F02522F550F3B
:101B6000852F842B27FB992790F9893641E094072C
:101B700078F068E671E00E94962E80FB37F930938A
:101B80000E0286952078282B90FB27F920930F02D0
:101B90000895982F96959F739532C0F28178886446
:101BA000D3CF88E090E00C94012FCF92DF92EF9298
:101BB000FF926B017C010E949D0DB701A60188E098
:101BC00090E0FF90EF90DF90CF900C941F2FEEE00D
:101BD000F2E083E0808310920F028FEF8283838391
:101BE000148260817181828193810C94D50D8091E2
:101BF0000E0280FF03C086958F73089580E00895DC
:101C00008091120290E001968430910514F083E0F7
:101C100090E08093120260910E0270910F02809109
:101C20001002909111020C94D50D809112028150F6
:101C3000990B97FF02C090E080E08430910514F08A
:101C400083E090E08093120260910E0270910F0287
:101C500080911002909111020C94D50D80910E028A
:101C6000E3E1F2E080FF06C06CE070E083E192E027
:101C70000C94D313118210821282339682E0E733E0
:101C8000F807C1F7F1CF90910E0290FF0CC0E3E18D
:101C9000F2E0818360834283339692E0E733F90771
:101CA000C1F70C942E0E0895CF93DF9300D01F92AE
:101CB000CDB7DEB720910E0220FF0AC09E012F5F34
:101CC0003F4F0E94280D4B8169818A810E94430EFB
:101CD0000F900F900F90DF91CF9108955F926F92C8
:101CE0007F928F929F92AF92BF92CF92DF92EF92AC
:101CF000FF920F931F93CF93DF9300D01F92CDB726
:101D0000DEB78C01E62EF42E522E80910E0280FF5B
:101D10002FC0982F9E779230F1F59E012F5F3F4F95
:101D2000C8010E94280D4B8169818A810E94430E5F
:101D300080910E0200FB87F980930E02902F9695FA
:101D400080910F028078892B10FB87F980930F0216
:101D5000E0921002F0921102552051F060910E02B3
:101D600070910F0280911002909111020E94D50D86
:101D70000F900F900F90DF91CF911F910F91FF90D7
:101D8000EF90DF90CF90BF90AF909F908F907F901B
:101D90006F905F900895E82FE695EF739EE39E0F96
:101DA0009F73943018F4F0901102C2CF9AE39E0F03
:101DB0009F73993068F4881F8827881F90910F02BD
:101DC000292F220F022F082B97FB112710F9B0CFD4
:101DD00087E28E0F8F738A3008F0AACFE951FF0B8C
:101DE0002FEFE0FF21E0EE7FE45EF84F85919491C4
:101DF0006CE070E00E94822E26034001279F900C29
:101E00001124580188E9A81A8EEFB80A83E1C82E78
:101E100082E0D82E98E6692E77247394C501B30129
:101E20000E94822E96014F2D6E2D0E94280DA80C27
:101E3000B91C83E0C80ED11C87E3C81682E0D8061F
:101E400069F70E942E0E74CF282FEEE0F2E0308169
:101E5000331F3327331F40910F02542F550F852F07
:101E6000832B47FB992790F9089668E671E00E945A
:101E7000962E438162810C946E0E81E00C94240FA7
:101E8000282F30910E02331F3327331F40910F024A
:101E9000542F550F852F832B47FB992790F98830B6
:101EA000910540F4805A9E4F4091110260911002BA
:101EB0000C946E0E089768E671E00E94962EF4CF9F
:101EC00081E00C94400F60911002683FA0F4685FBD
:101ED00030910E02331F3327331F90910F02592F79
:101EE000550F97FB992790F9282F40911102852FC4
:101EF000832B0C946E0E6FEFEBCF81E00C94630F8D
:101F0000609110026830A0F0685030910E02331FCB
:101F10003327331F90910F02592F550F97FB9927A5
:101F200090F9282F40911102852F832B0C946E0E6F
:101F300060E0EBCF81E00C94800F40911102483FAC
:101F4000A0F4485F30910E02331F3327331F909166
:101F50000F02592F550F97FB992790F9282F609161
:101F60001002852F832B0C946E0E4FEFEBCF81E088
:101F70000C949D0F409111024830A0F048503091D0
:101F80000E02331F3327331F90910F02592F550F25
:101F900097FB992790F9282F60911002852F832BAA
:101FA0000C946E0E40E0EBCF81E00C94BA0F20E071
:101FB0000C946E0ECF9390910E0290FF40C09178DA
:101FC000811131C0926090930E02662351F06091AE
:101FD0000E0270910F0280911002909111020E94E6
:101FE000D50DC0910E026C2F66956F7370E04BE0BB
:101FF00050E08BE091E00E94EC2E892BE1F01092F2
:102000007301CC1FCC27CC1F90910F02892F880F12
:1020100097FB992790F940911102609110028C2B47
:10202000CF910C94D70F853210F09864CCCF8F737A
:10203000880F982BC8CF81E080937301E2CFCF91B6
:102040000895682F90910E0296959F7381E0890FF5
:10205000853208F081E00C94DA0F81E00C942110B5
:10206000682F90910E0296959F738FEF890F09F458
:1020700084E20C94DA0F81E00C94301061E00C944F
:10208000DA0FEEE0F2E080818160808386958F73C5
:102090000C943E1060E00C94DA0F80917401811171
:1020A00035C08091FE0181608093FE010E94E22094
:1020B000811104C00E946A210E94E70D0E94D10D87
:1020C00060930E0270930F0280931002909311029E
:1020D0006E7761F40E94E70D0E94D10D60930E02AD
:1020E00070930F0280931002909311020E949D0D35
:1020F00081E08093730180910E0280FF04C0869579
:102100008F730E944A1081E0809374010895EEE07D
:10211000F2E080818E7F80836081718182819381F2
:102120000E94D50D109273012FEF80E792E02150AD
:1021300080409040E1F700C000000C942E0E80918A
:102140000E0280FD0C9487100C944110CF93E82F61
:10215000F0E0E85EF84FC4918091710190917201B6
:102160000E944122C817190611F008F042C00E94CF
:10217000352290937201809371016091700170E03B
:1021800090E080E00E94732C20E030E04FE753E4C1
:102190000E94962B2BED3FE049E450E40E949C2DD9
:1021A0000E94092E0E94102C2BE43AE34EE25FE3DA
:1021B0000E94292B20EF3BEF48ED52E40E949C2D1A
:1021C0000E94422C462F80910E02881F8827881F6C
:1021D00090910F02292F220F97FB992790F9609178
:1021E0001002822B0E94540E809170018F5F8093A9
:1021F0007001CF910895CF93E82FF0E0EB5EF84F98
:10220000C49180916E0190916F010E944122C81784
:10221000190609F0E8F40E94352290936F0180932B
:102220006E01409111026091100280916C019091B9
:102230006D010E94540E80916C0190916D01019688
:1022400068E671E00E94822E90936D0180936C018C
:10225000CF910895CF92DF92FF920F931F93CF9368
:10226000DF93F82EE82FE695F0E0EE5EF84FC4918C
:1022700080916A0190916B010E944122C817190652
:1022800009F0A8F50E94352290936B0180936A01B2
:1022900003E112E0D0E0C0E088E6C82EDD24D3944C
:1022A00080916801909169018C0F9D1FB6010E9479
:1022B000822E980140911102609110020E94280D17
:1022C0006E960D5F1F4FC83681E0D80749F70E9410
:1022D0002E0E8091680190916901F0FE10C0019668
:1022E000BE010E94822E9093690180936801DF9164
:1022F000CF911F910F91FF90DF90CF90089501979C
:10230000F2CFCF92DF92EF92FF920F931F93CF9372
:10231000DF93FF24FA9480FD02C0FF24F394869596
:10232000E82FF0E0E15FF84FC49180916601909151
:1023300067010E944122C817190611F008F051C028
:102340000E943522909367018093660103E112E0B9
:10235000D0E0C0E0F80111821082128294E0C92E10
:10236000D12CE12C809165018E0D87FD845F082EB4
:10237000000C990BC817D907E9F4809111028C9DC4
:10238000A0018D9D500D1124559547955595479564
:1023900080910E02881F8827881F90910F02592F65
:1023A000550F97FB992790F9980160911002852BA2
:1023B0000E94280DEF0CF1E0CF1AD10899F6219672
:1023C0000D5F1F4FCC30D10529F60E942E0E809153
:1023D000650191E0F91210C081110CC08BE080936F
:1023E0006501DF91CF911F910F91FF90EF90DF90EA
:1023F000CF9008958150F3CF90E00196BE010E94E6
:10240000962EEDCF0F931F93CF93DF93E82FF0E03D
:10241000E45FF84FC49180916301909164010E9440
:102420004122C817190611F008F052C00E94352247
:102430009093640180936301C3E1D2E0FE011182B5
:1024400010821282339682E0E733F807C1F710E07A
:1024500000E080916201082E000C990B0817190703
:10246000E4F180910A01082E000C990B8017910766
:10247000A4F180910E02881F8827881F90910F0277
:10248000592F550F97FB992790F99E014091110202
:1024900060911002852B0E94280D0F5F1F4F23961D
:1024A0000C301105B1F60E942E0E80910901909119
:1024B0006201980F9093620120910A01280F2093E6
:1024C0000A01121614F49B301CF0819580930901C7
:1024D000DF91CF911F910F910895198218821A826E
:1024E000DCCFEF92FF920F931F93CF93DF938091F6
:1024F0006001909161010E944122883E9340C8F1A1
:102500000E9435229093610180936001C0915E0129
:10251000D0915F012196C170DD27D0935F01C093F8
:102520005E0183E1E82E82E0F82E10E008E7812FBB
:1025300086958C0F9D2F911D817099279701409151
:10254000110260911002FC010E9FC0010F9F900DBF
:1025500011240E94280D1F5FF3E0EF0EF11C1C30C8
:1025600031F7DF91CF911F910F91FF90EF900C9475
:102570002E0EDF91CF911F910F91FF90EF90089554
:10258000CF93DF9300D01F92CDB7DEB780915C016F
:1025900090915D010E944122EAE0F7E0259134919B
:1025A00082179307B8F180915B0181110CC09E01E5
:1025B0002F5F3F4F4FEF6FEF90E080E00E94280DBC
:1025C0008A8180935B010E94352290935D01809304
:1025D0005C0180915A01813069F038F040915B01D3
:1025E000823009F040E080E003C080915B0140E070
:1025F00060E004C060915B0140E080E00E94430E17
:1026000080915A0190E0019663E070E00E94962E5E
:1026100080935A010F900F900F90DF91CF91089502
:102620000F931F93CF93DF9380915801909159019D
:102630000E944122843F9140D8F10E94352290931C
:10264000590180935801C3E1D2E010E000E04091CD
:102650005601509157016091100280910E02282F6F
:10266000221F2227221F90910F02892F880F822B71
:1026700097FB992790F906301105FCF4452BF9F0EA
:102680009E01409111020E94280D0F5F1F4F23965B
:102690000C301105E1F60E942E0E809156019091AA
:1026A00057010196817099279093570180935601A5
:1026B000DF91CF911F910F910895452B09F39E0152
:1026C00040E0E1CF809173018823D1F190910E0217
:1026D000892F86958F732EE3280F2F73243018F4DB
:1026E00082500C94A6102AE3280F2F73233018F47D
:1026F00086500C94FB1027E3280F2F73263018F414
:1027000089500C942A1121E3280F2F73263018F4D6
:102710008F500C9481112BE2280F2F73233018F463
:1027200085510C9402129E77903311F40C9471121F
:10273000963411F40C94C012983411F40C941013C4
:1027400008953BB1242F209523233BB1432B3FB762
:10275000F894FC01680F791FE617F70711F43FBFE3
:102760000895819198E04BB9000000C087FF2BB914
:10277000880F000000C000C000C02BB900C09A95AF
:1027800091F7EACF2AB1242B2AB99B01220F331FDC
:10279000620F731F0E94A11387EC90E00197F1F77D
:1027A00000C00000089548E00C94C2138EE1489BDD
:1027B00002C08150E1F7489BFECF0895589880E20F
:1027C0008A95F1F7589A0895FC013BE03A95F1F7A4
:1027D00098E020E080E031E040E14A95F1F7880F91
:1027E000489B02C08160232742E04A95F1F7000030
:1027F00040E14A95F1F7915079F790E19A95F1F718
:1028000099B132E03A95F1F7000040E14A95F1F7CD
:10281000917092272081920F90830895EF92FF92FA
:102820000F931F93CF93DF931F92CDB7DEB719821B
:102830008C017C01E60EF11C0E151F0561F481E090
:102840009981911180E00F90DF91CF911F910F91AD
:10285000FF90EF9008950E94D613CE0101960E943A
:10286000E413F80181938F01E7CF90937601809371
:102870007501509A589A0895909376018093750146
:102880005098589AE89AE9E6F0E080818C7F80833E
:1028900008956150770B91E001C0990F6A95EAF7AE
:1028A00020E031E0911108C0222391F0589A80E293
:1028B0008A95F1F758980895492F482339F0589A86
:1028C000232740E24A95F1F79695ECCF5898F9CF37
:1028D0005898EDCFFF920F931F93CF93DF93EC01A6
:1028E0008C01060F111DC017D10731F4DF91CF9174
:1028F0001F910F91FF900895F9900E94DE1368E0F8
:102900008F2D0E944914EFCF1F920F920FB60F9296
:1029100011242F933F934F935F936F937F938F93E4
:102920009F93AF93BF93CF93DF93EF93FF93589809
:10293000509AC0917501D09176016D81662321F086
:102940008E819F810E946A140E94DE1380E18A9525
:10295000F1F758985098589A80E18A95F1F76A8172
:10296000662309F18B819C810E940E14E881F98114
:10297000882311F088E001C082E080830E94D61392
:10298000FF91EF91DF91CF91BF91AF919F918F9187
:102990007F916F915F914F913F912F910F900FBE5B
:1029A0000F901F901895E881F981E4CFCF93DF93C2
:1029B000C0917501D0917601F894509A589885E0AD
:1029C0008A95F1F700005098589A80E28A95F1F7BD
:1029D000489B0CC0509A589AE881F98181E0808325
:1029E000789481E090E0DF91CF9108956D81662326
:1029F00081F08E819F810E940E1481110AC0509A2D
:102A0000589AE881F98182E08083789482E090E0AE
:102A1000EACF0E94D61380E28A95F1F75898509A2F
:102A200080E18A95F1F76A81662321F08B819C8190
:102A30000E946A140E94DE13E881F9811082789462
:102A400090E080E0D0CF90937C0180937B0108954B
:102A5000E0917B01F0917C01309721F00190F081B1
:102A6000E02D099480E00895E0917B01F0917C01D4
:102A7000309721F00280F381E02D09940895209190
:102A8000790130917A012817390771F090937A0112
:102A900080937901E0917B01F0917C01309721F0E6
:102AA0000680F781E02D09940895209177013091F7
:102AB00078012817390771F0909378018093770196
:102AC000E0917B01F0917C01309721F00084F18549
:102AD000E02D0994089585B7806885BF85B7806823
:102AE00085BF089508950C94721508950C9475157A
:102AF0000E946B150E94DD0C0C9473150E942C2211
:102B00000E947C0B0E94A2220E949B230E944D10D7
:102B10000C947615BF92CF92DF92EF92FF920F93B3
:102B20001F93CF93DF93CDB7DEB72A970FB6F894F4
:102B3000DEBF0FBECDBF0E94540C0E94BE0C882386
:102B400009F46FC08EE7C82E81E0D82E10E000E0B7
:102B5000B02E802F0E94750BE82EF601F1906F01C8
:102B6000F81609F458C08091FE0181FD0E947B0B8C
:102B700090E080E0FE242F2D30E0482FB901082E90
:102B800002C0759567950A94E2F760FF3FC08E8397
:102B9000BF8281E090E06C0102C0CC0CDD1C4A9544
:102BA000E2F72E2D30E02C213D21232B09F480E08B
:102BB00088870E9435228160782F9A8789874E8185
:102BC0005F8168858A850E943216F801E258FE4FBF
:102BD00080818C2580830E94281590917D01891722
:102BE00089F10E94281580937D012A960FB6F894EA
:102BF000DEBF0FBECDBFDF91CF911F910F91FF9030
:102C0000EF90DF90CF90BF900C940B06019686302A
:102C1000910509F0B2CF0F5F1F4F0A30110509F07F
:102C200097CF8FEF89838A831B820E943522816030
:102C3000782F9D838C8349815A816B818D810E947D
:102C40003216C9CF2A960FB6F894DEBF0FBECDBF9D
:102C5000DF91CF911F910F91FF90EF90DF90CF9078
:102C6000BF900895CF93DF93CDB7DEB72B970FB604
:102C7000F894DEBF0FBECDBF4F83588769877A8730
:102C80008B871E821D8285E0FE013796DE0111963C
:102C900001900D928A95E1F749815A816B817C817F
:102CA0008D819E812B960FB6F894DEBF0FBECDBFEF
:102CB000DF91CF910C94101DFC01808191810C94C7
:102CC000DD1FCF93C82F882309F4DEC08238C1F4FA
:102CD0000E94281581FDD8C089E30E940B200E9424
:102CE0007F202FEF81EE94E0215080409040E1F76B
:102CF00000C0000089E30E941220CF910C947F2035
:102D00008338A1F40E94281580FDBEC083E50E948F
:102D10000B200E947F202FEF81EE94E02150804015
:102D20009040E1F700C0000083E5E5CF8438A1F4CE
:102D30000E94281582FDA8C087E40E940B200E94F3
:102D40007F202FEF81EE94E0215080409040E1F70A
:102D500000C0000087E4CFCF8CEF8C0F813A48F49D
:102D60008C2F0E94642381118FC08C2F0E940B2016
:102D7000C4CF80E28C0F883048F4C77081E001C076
:102D8000880FCA95EAF70E943320B7CF8BE58C0FE6
:102D9000833068F481E890E0C53A31F083E890E050
:102DA000C63A11F482E890E0CF910C943F1588E583
:102DB0008C0F873108F068C082EE90E0C83A09F4C1
:102DC00060C089EE90E0C93A09F45BC08AEE90E0F9
:102DD000CA3A09F456C085EB90E0CB3A09F451C0E9
:102DE00086EB90E0CC3A09F44CC083EB90E0CB3B0F
:102DF00009F447C084EB90E0CC3B09F442C087EB78
:102E000090E0CD3AF1F18CEC90E0C03BD1F18DEC4B
:102E100090E0CE3AB1F183E891E0CF3A91F18AE8BF
:102E200091E0C13B71F182E991E0C23B51F184E94B
:102E300091E0C33B31F181E292E0C43B11F183E2C6
:102E400092E0C53BF1F084E292E0C63BD1F085E22E
:102E500092E0C73BB1F086E292E0C83B91F087E296
:102E600092E0C93B71F08FE690E0CD3B51F080E7F6
:102E700090E0CE3B31F090E080E0CA3B11F48AE272
:102E800092E0CF910C945515CF910895882309F4C1
:102E90004BC0823871F40E94281581FF45C089E338
:102EA0000E940B200E947F2089E30E9412200C9434
:102EB0007F20833859F40E94281580FF35C083E5B0
:102EC0000E940B200E947F2083E5EFCF843859F4C5
:102ED0000E94281582FF28C087E40E940B200E94D0
:102EE0007F2087E4E2CF9CEF980F913AF0F290E2D6
:102EF000980F983050F4877091E001C0990F8A952F
:102F0000EAF7892F0E943920D2CF9BE5980F9330A2
:102F100020F490E080E00C943F15885A873120F42B
:102F200090E080E00C9455150895882321F00E94CC
:102F300033200C947F200895882321F00E943920AB
:102F40000C947F2008958F929F92AF92BF92DF9250
:102F5000EF92FF920F931F93CF93DF937C01D62FB5
:102F6000C72FFC01058102950F70128111110E947B
:102F700052200E942920D82E882371F0112331F18C
:102F800080E28D0F883010F182E00E94CA200E94FA
:102F9000292091E0D82ED926BC2EB2949FE0B922E8
:102FA000EB2DF0E0EA52F84E0C94CC2EE817E8171F
:102FB000381838187F18861886188618A7188618A3
:102FC00042194219CC19D5198618F819D12CE4CF19
:102FD0000C2F0F70C07F11F00295007F1123A9F014
:102FE000002359F080E28D0F883010F0D11109C014
:102FF000802F0E9433200E947F208D2F0E94611617
:1030000014C0802F0E944420F6CF8D2F0E944617B7
:10301000002359F080E28D0F883010F0D11124C0C8
:10302000802F0E9439200E947F20DD2009F4E7C113
:103030000E94252080FDE3C1F70112820E941F201B
:103040000E94A31EC7010E940B1A0E941F20DF913D
:10305000CF911F910F91FF90EF90DF90BF90AF90B5
:103060009F908F900C94C41E802F0E944A20DBCF2B
:10307000FC2FFF70BF2EC07FC03219F0B29480EFDA
:10308000B822DD2369F0D13049F1112391F10023F9
:1030900051F1F701858180FFB0CF8F70858323C008
:1030A000112381F0011106C00E9466208B290E9425
:1030B0009517BBCF0130C1F70E9466208B290E9473
:1030C0006C20B3CF011106C00E9475208B2D0E9489
:1030D0009C17ABCF013009F4A8CFF6CF112329F00C
:1030E000063008F0A2CF8B2DE2CF053008F09DCF3F
:1030F000EDCF002359F38D2F0E94461796CF8C2FCA
:1031000086958695837079F08130B9F098E0B9168C
:1031100009F459C0B91608F488CF86EF8B0D8230B8
:1031200008F451C082CF8D2F9C2F9370111102C0D3
:1031300090E080E00E943F1578CF8D2F9C2F9370F8
:10314000111102C090E080E00E9455156ECF8C2FC7
:10315000837009F04BC0111136C02D2F2295269592
:103160002770220F220F6D2F6F70862E912CB12C9D
:10317000A12C022E04C0880C991CAA1CBB1C0A940A
:10318000D2F760E070E0CB01D4FF0FC06FE070E0D9
:1031900080E090E004C0660F771F881F991F2A9572
:1031A000D2F76095709580959095C695C695C37039
:1031B000C23071F0A0F4682979298A299B29C1308D
:1031C00091F00E94551E0E9428150E940B062DCFDB
:1031D000682979298A299B290E94671EF4CF0E94B9
:1031E000551EC501B4010E94431EEDCF86951123E3
:1031F00011F08C2F8170882331F32D2F2295269585
:103200002770220F220F6D2F6F70862E912CB12CFC
:10321000A12C022E04C0880C991CAA1CBB1C0A9469
:10322000D2F760E070E0CB01D4FF0FC06FE070E038
:1032300080E090E004C0660F771F881F991F2A95D1
:10324000D2F76095709580959095C695C695C37098
:10325000C23051F080F4682979298A299B29C1302C
:1032600071F00E941A1FAFCF682979298A299B29FA
:103270000E942C1FA8CF0E941A1FC501B4010E94F2
:10328000081FA1CFE0E2ED0FE53108F066C0F0E0E5
:10329000E45BF64E0C94CC2E611961196119611929
:1032A000611961196119611961196119611961194E
:1032B00061196119611961197219801987198E19BB
:1032C0009819DF708C2F8F71112331F00E94A31E8B
:1032D0008D2F0E9495171ACF0E94C41E8D2F0E9419
:1032E0009C1714CF112341F0053008F00FCF8C2F1D
:1032F0008F710E94E71E0ACF063008F007CFF7CF84
:103300008C2F8F71112339F00E94A31EFFCE8C2FBA
:103310008F711123C9F30E94C41EF8CE112329F026
:103320008C2F8F710E948E1EF1CE0E94891EEECED0
:10333000112349F0CF718C2F0E94A31E63E08C2FC4
:103340000E94B520E3CE81E00E94CA20023008F43A
:10335000DDCE82E00E94CA20D9CE112349F000239D
:1033600021F08D2F0E946116D1CE8C2F8F71CCCF82
:10337000002379F0D93349F4FFEF27EE83E0F150D1
:1033800020408040E1F700C000008D2F0E944617CA
:10339000BDCE8C2F8F71BFCF4C2F4F706D2FC701BB
:1033A0000E94BD080E94B91D40CE11113ECECF70C3
:1033B000C230B1F040F4CC2381F0C13009F0A6CE88
:1033C0000E94CC2332CEC43089F068F080E0C53052
:1033D00009F09CCE0E94322428CE0E94B42325CE30
:1033E0000E94082422CE0E940F241FCE85E0F2CF37
:1033F0004C2F4F706D2FC7010E94C00816CEDF9171
:10340000CF911F910F91FF90EF90DF90BF90AF9001
:103410009F908F9008950F931F93CF93DF93EC01AC
:10342000988189812B813C81232B39F08F3F19F4BE
:1034300081E09F3F19F080E001C081E080FD17C06E
:10344000CE010E942306882391F0688179818A81C8
:103450000E94E71F8C010E943E1F0E94401EB8017F
:10346000CE01DF91CF911F910F910C94A317DF91A3
:10347000CF911F910F9108950E9452200E946320C6
:103480000E947F2090E080E00E943F1590E080E065
:103490000C9455150E9419200C943C1A0E9441204E
:1034A0000C944A1AE92FE295EF70E250EE30E0F406
:1034B000F0E0E35AF54E0C94CC2E6B1A6B1A741A8A
:1034C000741A761A741A741A741A6B1A6B1A7B1A95
:1034D000741A741A7B1A803F19F020F4803E20F48D
:1034E00081E00895843FE1F380E00895803EC0F3D9
:1034F000813FD1F7F5CF93FB882780F908950E948B
:10350000DD1F0C94521ACF93DF9300D000D01F928E
:10351000CDB7DEB70F900F900F900F900F90DF9107
:10352000CF910895CF93DF9300D000D000D0CDB7D6
:10353000DEB726960FB6F894DEBF0FBECDBFDF9183
:10354000CF9108951F93CF93DF93C091890116E027
:1035500080918A018C1304C0DF91CF911F9108954F
:10356000D0E01C9FF0011D9FF00D1124E557FE4F88
:103570004081518162817381848195810E94921A78
:103580002196C770E5CF4091BB015091BC0160917D
:10359000BD017091BE018091BF019091C0010C945A
:1035A000921A1F93CF93DF938091C001807FD1F453
:1035B0008091BD018823B1F080918901D0918A0169
:1035C000B091BB01C091BC014091BE015091BF01BF
:1035D000A1E0BF3F09F0A0E0BA016095709516E048
:1035E000D81304C0DF91CF911F91089521E04115B8
:1035F000510521F02A2FCF3F09F020E090E020FD77
:1036000038C0189FF001199FF00D1124E557FE4FA7
:1036100021812C132EC020812B132BC0228121113C
:1036200028C0238134812417350700F1241B350B72
:10363000283C3105F0F42091C0012F7020612093C7
:10364000C00126E0289FF001299FF00D1124E057CA
:10365000FE4F80818F70806180838BEB91E00E94B0
:103660000B1ADF91CF911F910C94A21A260F371FCE
:10367000DFCF01968770B4CFAF92BF92CF92DF9227
:10368000EF92FF920F931F93CF93DF93CDB7DEB7E7
:1036900061970FB6F894DEBF0FBECDBF8C0185E0F9
:1036A000F801DE011D9601900D928A95E1F7D8018F
:1036B0004C9111965C9111971296EC903091BB0150
:1036C0006091BC018091BE019091BF0121E0009703
:1036D00031F06F3F19F421E03F3F09F020E0B22FB5
:1036E000B170BB2E20FD80C1F801C380D480A090B2
:1036F000BD01AA2009F427C1C816D906D0F1D60108
:10370000A81BB90BCD01FF24F394883C910508F068
:10371000F12C8091C001982F907FFF2009F4CEC03A
:10372000911187C0FE2C651329C0341327C0E11006
:1037300025C08F7080618093C0010E94C31A8BEBFB
:1037400091E00E940B1A8091C001F80185838F2DB2
:1037500061960FB6F894DEBF0FBECDBFDF91CF915B
:103760001F910F91FF90EF90DF90CF90BF90AF909F
:103770000895809590958C0D9D1DC5CF81E0CD2835
:1037800031F05F3F19F481E04F3F09F080E080FDA8
:1037900024C081E08E25F82FF170DF2E80FF3FC01E
:1037A0008091890120918A0136E0821318C04D87EB
:1037B0005E878D859E850E94DD1F292F22952F70A3
:1037C000223008F1243030F59F7009F1D8011596A8
:1037D0009C91907FE1F4FB2CBACF80E0DCCF90E0AD
:1037E000389FF001399FF00D1124E557FE4F61819C
:1037F000561306C06081461303C062816E110FC06C
:1038000001968770D2CF9F7011F0882321F3805EDC
:10381000883008F3C8010E940B1ABD2CDCCFEE20C3
:1038200009F495CF8091C00181608093C001F12C93
:103830008ECF651314C0341312C0E11010C0F8010C
:103840008583C8010E940B1A86E0F801ABEBB1E05A
:1038500001900D928A95E1F70E94C31A78CF4D87A7
:103860005E878D859E850E947F1A882319F1EE2040
:1038700009F18091C001803270F02091BB0130913C
:10388000BC0138872F831986DB86CA868C87CE01D8
:1038900007960E940B1A86E0F801ABEBB1E00190AD
:1038A0000D928A95E1F70E94D11A0E94C31AFF2453
:1038B000F3944DCFC8010E940B1AF9CF911113C098
:1038C0007C2DD98AC88A6E2D89890E94831A8BEB38
:1038D00091E00E940B1A86E0EBEBF1E0DF011D9214
:1038E0008A95E9F7B9CF651312C0341310C0E110FF
:1038F0000EC0F8018583C8010E940B1AEBEBF1E0C2
:1039000086E0DF011D928A95E9F7FA2C20CF4D87DA
:103910005E878D859E850E947F1A882359F2EE204E
:1039200049F28091C001803208F4B5CF2091BB01EB
:103930003091BC013A8329831B82DD82CC828E8345
:10394000CE010196A6CFC816D90638F1F601E81BBC
:10395000F90BCF01F12C883C910508F03DC0FE2CFD
:10396000EE2009F4A7CF651326C0341324C080913C
:10397000C00180FD17C0982F907FA1F0D801159647
:103980008C931597903F09F45CCF982F907F905FB0
:103990008F70892B15968C9354CF809590958C0DB4
:1039A0009D1DD8CF86E0F801ABEBB1E001900D9200
:1039B0008A95E1F7CCCE4D875E878D859E850E94E6
:1039C0007F1A811168CF8091C00181608093C0010E
:1039D000C8010E940B1ABBCE7C2DD98AC88A6E2DD5
:1039E00089890E94831A77CFEE2009F463CF4D872F
:1039F0005E878D859E850E947F1AF82E882309F4A4
:103A000059CF86E0F801ABEBB1E001900D928A95B9
:103A1000E1F78BEB91E00E945C160E94D11A1CCF5B
:103A20001F93CF93DF93CDB7DEB72C970FB6F894E3
:103A3000DEBF0FBECDBF4F83588769877A878B87DC
:103A40009C87CE0107960E943C1B882309F442C044
:103A50009F8188852A853B85232B39F08F3F19F478
:103A600081E09F3F19F080E001C081E080FD08C047
:103A70004F81588569857A858B859C850E94921A2D
:103A800016E08091890190918A01891709F467C035
:103A9000819FC001112485579E4F0E943C1B8823A3
:103AA00009F45DC0E09189011E9FF0011124E557E2
:103AB000FE4F4081518162817381848195810E9492
:103AC000921A8091890190E00196877099278093DE
:103AD0008901D7CF86E0FE013796DE01119601906D
:103AE0000D928A95E1F79F8188852A853B85232B56
:103AF00039F08F3F19F481E09F3F19F080E001C059
:103B000081E080FDBDCF20918A0130E0C90101969E
:103B100087709927409189014817190699F096E016
:103B2000929FD001939FB00D1124A557BE4FFE0167
:103B3000319601900D929A95E1F780938A010E9447
:103B4000A21A9ECF0E944E1A10928A0110928901E9
:103B500086E0EBEBF1E0DF011D928A95E9F72C9608
:103B60000FB6F894DEBF0FBECDBFDF91CF911F918E
:103B70000895EF92FF920F931F93CF93DF938C01E1
:103B8000892B81F0F12CEE24E394E8012196F801D1
:103B90008491843770F4843008F05FC08130B1F0D4
:103BA0008230A1F1DF91CF911F910F91FF90EF90A3
:103BB0000895853709F44CC008F43DC09CE7980F80
:103BC000903780F78F770E94461749C00E5F1F4FCE
:103BD000FE01849190E2980F983060F48770FE2D7A
:103BE00001C0FF0F8A95EAF78F2F0E9455200E948F
:103BF0007F2002C00E9461168F2D815030F2EFE9C4
:103C0000FFE03197F1F700C00000F7CF0E5F1F4FC4
:103C1000FE01849190E2980F983050F48770FE2D49
:103C200001C0FF0F8A95EAF78F2F0E945B20DFCF3C
:103C30000E944617E1CF0E5F1F4FFE01C491C15095
:103C4000D8F28FE99FE00197F1F700C00000F7CFAD
:103C50000E5F1F4FFE01F490CFCF0E9461168E01C0
:103C6000CBCF08950C94311E0E94321E6093ED015B
:103C70007093EE018093EF019093F0010C943C1A45
:103C800008950C94341E0F931F930091ED01109131
:103C9000EE012091EF013091F001602B712B822B0E
:103CA000932B1F910F910C94341E0F931F9300912F
:103CB000ED011091EE012091EF013091F0016023B0
:103CC0007123822393231F910F910C94341E0F9321
:103CD0001F930091ED011091EE012091EF013091C1
:103CE000F00160277127822793271F910F910C9471
:103CF000341E0C94311E0C94791E0E947B1E60931E
:103D0000E9017093EA018093EB019093EC010C942C
:103D10003C1A60E070E0CB010C947D1E0F931F9362
:103D200041E050E060E070E08A019B0104C0000FB8
:103D3000111F221F331F8A95D2F7C901B8011F91A5
:103D40000F910C947D1E0F931F9341E050E060E0B3
:103D500070E004C0440F551F661F771F8A95D2F785
:103D60008091E9019091EA01A091EB01B091EC0101
:103D70008A019B01082B192B2A2B3B2BC901B80167
:103D80001F910F910C947D1E0F931F9341E050E003
:103D900060E070E004C0440F551F661F771F8A95CE
:103DA000D2F7CB01BA0160957095809590950091FE
:103DB000E9011091EA012091EB013091EC016023BF
:103DC0007123822393231F910F910C947D1E0F93D7
:103DD0001F9341E050E060E070E004C0440F551FC5
:103DE000661F771F8A95D2F78091E9019091EA01C9
:103DF000A091EB01B091EC018A019B0108271927E2
:103E00002A273B27C901B8011F910F910C947D1EF1
:103E10000F931F930091E9011091EA012091EB01AA
:103E20003091EC01602B712B822B932B1F910F9102
:103E30000C947D1E0F931F930091E9011091EA01EC
:103E40002091EB013091EC016023712382239323B5
:103E50001F910F910C947D1E0F931F930091E90108
:103E60001091EA012091EB013091EC01602771275C
:103E7000822793271F910F910C947D1E0895292F5F
:103E8000220F920F990F890F982F977071E001C040
:103E9000770F9A95EAF786958695869525E0829F15
:103EA000C001112450E040E0A62FB0E0FC01E40F77
:103EB000F51FEF53FE4F60819D01042E02C0369521
:103EC00027950A94E2F72170219526272723262794
:103ED00020834F5F5F4F4530510541F70895292FEB
:103EE000220F290F220F820F982F977086958695A3
:103EF000869545E0849F9001112470E060E080E0A9
:103F0000F901E60FF71FEF53FE4F408150E0092EF5
:103F100002C0569547950A94E2F741705527062E40
:103F200001C0440F0A94EAF7842B6F5F7F4F65301E
:103F3000710531F70895BF92CF92DF92EF92FF9211
:103F40000F931F93CF93DF938C01C090E901D09022
:103F5000EA01E090EB01F090EC018091ED0190918D
:103F6000EE01A091EF01B091F001C82AD92AEA2A06
:103F7000FB2ACFE1D0E0BC2ED701C6010C2E04C035
:103F8000B695A795979587950A94D2F780FD0EC0B0
:103F9000219788F7B12C8B2DDF91CF911F910F9135
:103FA000FF90EF90DF90CF90BF900895B8018C2FD5
:103FB0000E94DD08019761F3EECFCF93DF93EC0110
:103FC0000E949B1FBE01DF91CF910C94DD081F93CF
:103FD000CF93DF93EB0190918801992331F0CB01CE
:103FE000DF91CF911F910C94DD1F882379F0CB01D5
:103FF0000E949B1F182F682FCE010E943F1FBE01F9
:10400000812FDF91CF911F910C94DD08CB010E948D
:104010006F1F182FF4CF682F809116019091170110
:104020000C949F21682F80911601909117010C9498
:10403000A12180911601909117010C94A3218091E8
:10404000F10185958595859508958091F101877099
:1040500008959091F101977081E009F480E008954E
:104060008091FD0108959091FD01892B8093FD01C0
:104070000895982F90958091FD0189238093FD01EB
:1040800008951092FD0108959091FC01892B809371
:10409000FC010895982F90958091FC0189238093CD
:1040A000FC0108951092FC0108959091FB01892B69
:1040B0008093FB010895982F90958091FB018923AF
:1040C0008093FB0108951092FB0108958091F20105
:1040D000089508950C9469209091F201981721F0A9
:1040E0008093F2010C946A2008958091F201882354
:1040F00029F01092F20180E00C946A200895E0917A
:104100001601F09117018091FD018083E091160165
:10411000F091170180819091FC01892B8083E091BF
:104120001601F091170180819091FB01892B80830A
:104130009091F201992381F0E0911601F09117011D
:104140008081892B808380911601909117010E94B4
:104150006C2181110E9475208091160190911701A8
:104160000C94341508950C94B22098E0899F900126
:104170001124622B6093F1010E94A31E8091F10132
:104180008595859585950C94B3201092F10180E07A
:104190000C94B3209091F101809589238093F101D3
:1041A000282F277071F4282F082E000C330B92173C
:1041B000130639F08595859585950E94C41E0C944B
:1041C000C520089590E080E00E94072F21E08D3EF9
:1041D0009E4F09F020E0822F089582E090E00C9439
:1041E000F92E83E090E00C94F92E682F83E090E0A4
:1041F0000C940D2F84E090E00C94F92E682F84E04D
:1042000090E00C940D2F86E090E00C94F92E682F2E
:1042100086E090E00C940D2FAB01BC018FE090E0A4
:104220000C941F2FAB01BC0183E190E00C941F2F75
:1042300060E070E0CB010C94122160E070E0CB01F3
:104240000E940C210C9418216DEE7EEF90E080E02E
:104250000E942B2F60E082E090E00E940D2F60E032
:1042600083E090E00E940D2F1092ED011092EE017C
:104270001092EF011092F00160E084E090E00E9463
:104280000D2F60E085E090E00E940D2F60E086E059
:1042900090E00E940D2F6FEF87E090E00E940D2FBD
:1042A00040E050E0BA0188E090E00E941F2F60E0FB
:1042B0008DE090E00E940D2F40E050E0BA0188E1CF
:1042C00090E00E941F2F60E087E190E00E940D2F98
:1042D0000C941D210C942421FC01329697E080E07F
:1042E000915009F4089521912223D1F38F5FF8CFE3
:1042F0009C01FC0132969FEF80E04191461751F0FE
:104300009F3F19F4411101C0982F8F5F8630A9F7A4
:104310009F3F09F40895290F311D97FD3A95F90142
:1043200062830895FC01329608962191261303C0FA
:10433000DF0111971C92E817F907B9F708950C945B
:1043400078210C949221029626E0FC0111922A9584
:10435000E9F70895089508950C94AB210E94AC21CB
:1043600080914202843061F11092FF0188E190E077
:1043700020E40FB6F894A895809360000FBE2093B8
:10438000600080E00E94970580E00E940B060E947A
:10439000AC2183B7817F846083BF83B7816083BF93
:1043A0007894889583B78E7F83BF0FB6F894A895CD
:1043B00080916000886180936000109260000FBE61
:1043C00008950895CF930E94AA210E94540C0E9440
:1043D000E121C0E08C2F0E94750B811105C0CF5FD9
:1043E000CA30C1F7CF91089581E0FCCF08950C94B5
:1043F000F6210E944E1A0E949B230E9428150E94BB
:104400000B060C94F7211F920F920FB60F921124F6
:104410008F939F93AF93BF938091FF01811113C03E
:104420008091370290913802A0913902B0913A02FE
:104430004196A11DB11D8093370290933802A0933D
:104440003902B0933A02BF91AF919F918F910F9033
:104450000FBE0F901F90189582E084BD93E095BD2C
:104460009AEF97BD80936E0008952FB7F8948091CE
:10447000370290913802A0913902B0913A022FBFD1
:104480000895CF92DF92EF92FF920F931F932FB771
:10449000F89440913702509138026091390270913E
:1044A0003A022FBF6A017B01EE24FF248C0130E029
:1044B00020E0C016D106E206F30650F0481B590B67
:1044C000CA011F910F91FF90EF90DF90CF90089558
:1044D00041505109F3CF78941F920F920FB60F926B
:1044E00011248F939F93AF93BF9380913702909144
:1044F0003802A0913902B0913A020196A11DB11D76
:104500008093370290933802A0933902B0933A0215
:10451000BF91AF919F918F910F900FBE0F901F9001
:10452000189587E797E7909301088093000888E142
:104530009AE00FB6F894A895809360000FBE909310
:104540006000FFCF0E94E220811102C00E946A2118
:104550000E94ED208093FE010E94FA2090E090934B
:104560003C0280933B020E94F120682F70E090E0B3
:1045700080E00C94411E0F931F9341E050E060E0F7
:1045800070E08A019B0104C0000F111F221F331F1E
:104590008A95D2F7C901B8010E94411E1F910F915F
:1045A0000C944E1A8B3109F470C040F58B3071F0C9
:1045B00078F4863009F450C020F4853059F180E059
:1045C0000895873009F452C08830C9F781E0089512
:1045D000803109F468C068F48E3089F79091FE014B
:1045E000892F8B7F92FF84608093FE0182FD57C0EC
:1045F000EDCF863159F3893149F3E1CF8A3249F160
:10460000B8F4873211F120F48E31C8F28D511EC0FA
:104610008932A9F60E944E1A2FEF83ED90E32150C4
:1046200080409040E1F700C000000E949122CECF70
:10463000833440F48A3308F041C0853331F0883345
:1046400029F2BDCF833409F0BACF80E00E94BB22AB
:10465000BDCF0E946A21BACF8091FE01817F8E7FFB
:104660008093FE0181E08093000208959091FE0105
:10467000892F8E7F90FF81608093FE0180FDA6CF01
:10468000897F877F8093FE01A1CF9091FE01892FC2
:104690008D7F91FF82608093FE0181FF97CF809193
:1046A000FE018160EFCF9091FE01892F877F93FFFC
:1046B00088608093FE0183FDF2CF88CF8953C6CFF7
:1046C00080E008950C946023CF93C82F809100025E
:1046D000882331F0813099F01092000280E00DC003
:1046E0000E9430208232D1F78C2F0E9460238111EA
:1046F00016C08C2F0E94D2228170CF9108950E9403
:104700003020823289F38C2F0E94622381110EC0E7
:10471000C43171F038F4CB3049F080E0EDCF81E066
:1047200090E0EACFC93221F0C833B9F781E0E4CF95
:1047300010920002F2CF0E94E220811102C00E947A
:104740006A210E94032180933D028C3020F0817009
:104750008A6080933D0280913D0280FF03C0869570
:104760000C94970580E0FCCF80913D02982F9695A0
:10477000953030F49F5F990F8170892B80933D02B3
:1047800080913D02816080933D020E9407218091CB
:104790003D0286950C94970580913D02982F9E7F4F
:1047A00079F0825080933D028E7F91E009F490E091
:1047B00080913D0290FB80F980933D020E94072189
:1047C00080913D0286950C94970580913D0280FD75
:1047D00011C0816080933D02813019F483E08093A1
:1047E0003D0280913D020E94072180913D02869505
:1047F0000C949705089580913D0280FF08C08E7F3C
:1048000080933D020E94072180E00C949705089553
:1048100080913D0280FD0C94FB230C94E523909144
:104820003D02892F86958F5F8F7791708630B8F41F
:10483000880F892B80933D0280913D028E7F91E00D
:1048400009F490E080913D0290FB80F980933D0255
:104850000E94072180913D0286950C9497059093C4
:104860003D02EACF863008F085E0982F990F8091BD
:104870003D028170892B80933D028E7F91E009F487
:1048800090E080913D0290FB80F980933D020E9470
:10489000072180913D0286950C949705809109022D
:1048A000089508950F931F93CF93DF9300D01F9225
:1048B000CDB7DEB78C010E947A26823011F08430A9
:1048C00021F584E089831B830A8382E08093E900D9
:1048D0008FEF9091E800815095FD06C095ED9A9577
:1048E000F1F700008111F5CF8091E80085FF0DC040
:1048F00050E040E063E070E0CE0101960E94972610
:104900008091E8008E778093E8000F900F900F90D1
:10491000DF91CF911F910F910895CF93DF9300D036
:104920001F92CDB7DEB720914202243031F523E04B
:104930002983805891099B838A8382E08093E900D0
:104940008FEF9091E800815095FD06C095ED9A9506
:10495000F1F700008111F5CF8091E80085FF0DC0CF
:1049600050E040E063E070E0CE0101960E9497269F
:104970008091E8008E778093E8000F900F900F9061
:10498000DF91CF910895CF93DF93EC010E947A26B7
:10499000823011F0843039F581E08093E9008FEFA7
:1049A0009091E800815095FD06C095ED9A95F1F73C
:1049B00000008111F5CF8091E80085FF14C050E020
:1049C00040E068E070E0CE010E9497268091E80008
:1049D0008E778093E80088E0FE01A1E0B2E00190CC
:1049E0000D928A95E1F7DF91CF9108958091410270
:1049F000811109C00E9427280E9484288091E2002A
:104A000084608093E2000895109241020895089511
:104A100008950C94F92142E061EC81E00E94A52701
:104A200042E261EC82E00C94A5278091440283303D
:104A300009F462C030F48130D9F1823009F49EC0AB
:104A400008958A3009F48AC08B3009F470C0893027
:104A500009F051C080914302813209F04CC080912D
:104A6000470290914802029708F045C08091E80003
:104A7000877F8093E8008091E80082FF38C08091B2
:104A8000F3009091F200892798278927029729F44B
:104A90008091F1008B7F813021F48091F10080932F
:104AA00009028091E8008B778093E8000C94D92765
:104AB00080914302813AF9F48091E800877F8093E6
:104AC000E8008091470290914802892B61F468E0E8
:104AD00081E092E070E00E94E6268091E8008B770A
:104AE0008093E800089560E090E080E0F3CF80914B
:104AF00042028111C0CF089580914302813AD9F7D3
:104B00008091470290914802892BA9F78091E80093
:104B1000877F8093E8008091E80080FFFCCF809140
:104B200022018093F1008091E8008E77BDCF8091C3
:104B30004302813201F78091470290914802892B0C
:104B4000D1F68091E800877F8093E8000E94D92702
:104B500080914502809322010C944E1A8091430269
:104B6000813249F68091E800877F8093E8000E94B7
:104B7000D9278091460280930A02089580914302CA
:104B8000813A09F0B8CF8091E800877F8093E800F0
:104B90008091E80080FFFCCF80910A02C2CF84B7E9
:104BA000877F84BF0FB6F894A895809160008861D4
:104BB00080936000109260000FBE80E880936100D7
:104BC000109261000E9478150E9427280E94842874
:104BD0008091E20084608093E20078940E940D2B23
:104BE0000E947E1588E191E00E9423158091420287
:104BF000853029F00E948A150E946213F7CF0E9427
:104C0000AE2180914002882389F30E94E22188230B
:104C100069F30E948126EACF0C940E26292F3327B0
:104C20002330310571F158F421303105E9F022309B
:104C3000310511F190E080E030E020E019C0213230
:104C40003105C1F122323105A9F780E490E021EE6F
:104C500038E06115710561F086E390E02BEA38E0F9
:104C60006130710529F0E6CF82E190E029E938E072
:104C7000FA013183208308958BE390E02EE538E03C
:104C8000F7CF99278130910579F040F08230910576
:104C900071F0039779F6E6E2F8E002C0EAE5F8E0A1
:104CA000849190E09F01E4CFEAE4F8E0F9CFECE2F0
:104CB000F8E0F6CF89E090E020E738E06115710573
:104CC000B9F289E090E029E838E06130710581F2BD
:104CD000B1CF0895CF93C82F0E946926C0930B02CD
:104CE000CF91089580914202843011F081E00895BF
:104CF00082E0089580910B02811102C00C9472260B
:104D0000089580E189BD82E189BD09B400FEFDCF2F
:104D10008091D8008F7D8093D8008091E0008260E0
:104D20008093E0008091E00081FDFCCF0895AF9278
:104D3000BF92CF92DF92FF920F931F93CF93DF9397
:104D40006C01EB018A010E94F827F82E811123C023
:104D50000115110539F0F80180819181C81BD90B2B
:104D6000C80ED91EB12CA12C2097A9F08091E80083
:104D700085FD22C08091E8008E778093E8000115C0
:104D80001105A1F0F80180819181A80EB91EB182B0
:104D9000A08285E0F82E8F2DDF91CF911F910F918A
:104DA000FF90DF90CF90BF90AF9008950E94F827BA
:104DB0008823D1F2F82EEFCFF60181916F01809315
:104DC000F1002197FFEFAF1ABF0ACECFFC0180910F
:104DD000490290914A0286179707A0F06115710564
:104DE00029F49091E8009E779093E80090E0611597
:104DF000710551F4911108C08091E80082FF35C01F
:104E000080E00895BC01F2CF809142028823C9F16D
:104E10008530C9F18091E80083FD31C08091E800C0
:104E200082FDEACF8091E80080FFE1CF2091F3007E
:104E30008091F200322F282F6115710519F028306A
:104E4000310558F091E02830310509F090E02091CB
:104E5000E8002E772093E800CACF81918093F1007B
:104E6000615071092F5F3F4FE7CF80914202882345
:104E700041F0853041F08091E80083FFBDCF81E0B3
:104E8000089582E0089583E00895FC01809149022D
:104E900090914A0286179707A0F06115710529F4D1
:104EA0008091E8008E778093E80090E061157105AD
:104EB00051F4911108C08091E80082FF36C080E073
:104EC0000895BC01F2CF809142028823D1F1853050
:104ED000D1F18091E80083FD32C08091E80082FD2D
:104EE000EACF8091E80080FFE1CF2091F30080912C
:104EF000F200322F282F6115710519F02830310585
:104F000058F091E02830310509F090E08091E800F8
:104F10008E778093E800CACF84918093F100319618
:104F2000615071092F5F3F4FE6CF80914202882385
:104F300041F0853041F08091E80083FFBCCF81E0F3
:104F4000089582E0089583E00895982F973028F01F
:104F50008F708093E90081E008959093E900242FF9
:104F6000762F50E0981731F07091EC002091ED0011
:104F70005091F00021FD02C09F5FE8CF3091EB001F
:104F80003E7F3093EB003091ED003D7F3093ED009C
:104F90003091EB0031603093EB007093EC00209384
:104FA000ED005093F0002091EE0027FDE5CF80E06A
:104FB00008958091430287FF13C08091E80082FF2B
:104FC00006C08091E8008B778093E80004C0809150
:104FD00042028111F2CF0895809142028823D9F3D1
:104FE0008091E80080FFF8CF8091E8008E77ECCFC9
:104FF0002091E4003091E50085E69091EC0090FF6F
:1050000006C09091E80090FF06C080E0089590915E
:10501000E80092FDFACF90914202992391F09530E9
:1050200091F09091EB0095FD10C04091E4005091FB
:10503000E5002417350709F381509A01F1F684E061
:10504000089582E0089583E0089581E008950E9424
:1050500095280E949D28E0EEF0E0808181608083A9
:10506000E8EDF0E080818F77808319BCA7EDB0E098
:105070008C918E7F8C9380818F7E808310924102F1
:1050800008950F931F93CF93DF930E9495280E945A
:105090009D28C8EDD0E088818F77888388818068DB
:1050A000888388818F7D888319BC10924202109278
:1050B0003E021092400210923F0200EE10E0F80112
:1050C00080818B7F808388818160888342E060E07B
:1050D00080E00E94A527E1EEF0E080818E7F808352
:1050E000E2EEF0E08081816080838081886080834F
:1050F000F80180818E7F8083888180618883DF9141
:10510000CF911F910F910895E8EDF0E080818F7E9F
:105110008083E7EDF0E080818160808384E082BF5E
:1051200081E0809341020C944128E8EDF0E0808119
:105130008E7F80831092E20008951092DA00109220
:10514000E10008951F920F920FB60F9211242F9332
:105150003F934F935F936F937F938F939F93AF93FF
:10516000BF93EF93FF938091E10082FF0BC080918A
:10517000E20082FF07C08091E1008B7F8093E10015
:105180000E940C2B8091DA0080FF19C08091D8001A
:1051900080FF15C08091DA008E7F8093DA008091C5
:1051A000D90080FF94C080E189BD82E189BD09B446
:1051B00000FEFDCF81E0809342020E94F6248091A0
:1051C000E10080FF19C08091E20080FF15C080914E
:1051D000E2008E7F8093E2008091E2008061809304
:1051E000E2008091D80080628093D80019BC85E0ED
:1051F000809342020E9408258091E10084FF29C02B
:105200008091E20084FF25C080E189BD82E189BDF3
:1052100009B400FEFDCF8091D8008F7D8093D80027
:105220008091E1008F7E8093E1008091E2008F7E8B
:105230008093E2008091E20081608093E20080919F
:105240003E02882309F449C084E0809342020E9410
:1052500009258091E10083FF29C08091E20083FF4E
:1052600025C08091E100877F8093E10082E08093F8
:10527000420210923E028091E1008E7F8093E10015
:105280008091E2008E7F8093E2008091E200806155
:105290008093E20042E060E080E00E94A5278091D8
:1052A000F00088608093F0000E940725FF91EF9145
:1052B000BF91AF919F918F917F916F915F914F912E
:1052C0003F912F910F900FBE0F901F90189519BC12
:1052D000109242020E94042572CF8091E30087FD64
:1052E00002C081E0B2CF83E0B0CF1F920F920FB621
:1052F0000F9211242F933F934F935F936F937F935C
:105300008F939F93AF93BF93CF93EF93FF93C091EE
:10531000E900CF708091EC001092E9008091F000DC
:10532000877F8093F00078940E94B1291092E90061
:105330008091F00088608093F000C093E900FF91B5
:10534000EF91CF91BF91AF919F918F917F916F918D
:105350005F914F913F912F910F900FBE0F901F9033
:1053600018951F93CF93DF93CDB7DEB7AA970FB6EB
:10537000F894DEBF0FBECDBFE3E4F2E08091F10010
:10538000819322E0EB34F207C9F70E941525809142
:10539000E80083FF44C080914302909144029A3018
:1053A00008F03DC0E92FF0E0E852F64D0C94CC2E09
:1053B000E229082A0F2A082A0F2A662A882A0F2A91
:1053C000DF2AEC2A803889F0823849F5809147023B
:1053D0008F70873020F58093E9008091EB0085FB8A
:1053E000882780F91092E90006C080913F029091D1
:1053F0004002911182609091E800977F9093E800BD
:105400008093F1001092F1008091E8008E772DC01A
:10541000282F2D7F21F48823D1F0823059F18091FB
:10542000E80083FF0AC08091E800877F8093E8004E
:105430008091EB0080628093EB00AA960FB6F894FF
:10544000DEBF0FBECDBFDF91CF911F910895809138
:105450004502813021F7933009F080E080934002CB
:105460001092E9008091E800877F8093E8000E9415
:10547000D927D5CF809145028111F2CF8091470283
:105480008F702FEF280F263050F68093E90020917F
:10549000EB0020FFE5CF933031F48091EB00806288
:1054A0008093EB00DDCF9091EB0090619093EB0047
:1054B00021E030E001C0220F8A95EAF72093EA004C
:1054C0001092EA008091EB008860EACF8111A7CFAB
:1054D000109145021F778091E3008078812B8093A3
:1054E000E3008091E800877F8093E8000E94D9273D
:1054F0008091E80080FFFCCF8091E300806880937A
:10550000E30083E0111101C082E08093420287CF63
:105510008058823008F083CF8091450290914602F6
:105520008C3D23E09207A1F583E08A838AE2898398
:105530004FB7F894DE01139620E03EE051E2E32FEE
:10554000F0E050935700E49120FF03C0E295EF7024
:105550003F5FEF708E2F90E0EA30C0F0C7968D93DA
:105560009D932F5F243159F74FBF8091E800877FCB
:105570008093E8006AE270E0CE0101960E94E62680
:105580008091E8008B778093E80049CFC096E7CF01
:105590006091470270914802AE014F5F5F4F0E94D9
:1055A0000C26BC01892B09F43ACF9091E800977F33
:1055B0009093E80089819A810E944527E1CF803845
:1055C00009F02DCF8091E800877F8093E8008091DB
:1055D0003E028093F10018CF811121CF90914502B6
:1055E000923008F01CCF8091E800877F8093E8001C
:1055F00090933E020E94D92780913E02882331F089
:1056000084E0809342020E940B2509CF8091E30041
:1056100087FDF6CF81E0F5CF0895CF9380914202C8
:10562000882399F0C091E900CF708091EC0080FD53
:105630000EC080E0C82B1092E9008091E80083FD45
:105640000E94B129CF70C093E900CF91089580E8FE
:10565000F1CF5058BB27AA270E94412B0C94EC2C69
:105660000E94DE2C38F00E94E52C20F039F49F3F98
:1056700019F426F40C94B42C0EF4E095E7FB0C948A
:10568000AE2CE92F0E94FD2C58F3BA17620773075E
:105690008407950720F079F4A6F50C941F2D0EF4DD
:1056A000E0950B2EBA2FA02D0B01B90190010C0132
:1056B000CA01A0011124FF27591B99F0593F50F44A
:1056C000503E68F11A16F040A22F232F342F4427A2
:1056D000585FF3CF469537952795A795F04053959A
:1056E000C9F77EF41F16BA0B620B730B840BBAF06A
:1056F0009150A1F0FF0FBB1F661F771F881FC2F7D5
:105700000EC0BA0F621F731F841F48F487957795E8
:105710006795B795F7959E3F08F0B0CF9395880FA2
:1057200008F09927EE0F9795879508950E94AA2B68
:105730000C94EC2C0E94E52C58F00E94DE2C40F0DA
:1057400029F45F3F29F00C94AE2C51110C94202DBC
:105750000C94B42C0E94FD2C68F39923B1F35523CB
:1057600091F3951B550BBB27AA2762177307840774
:1057700038F09F5F5F4F220F331F441FAA1FA9F30A
:1057800035D00E2E3AF0E0E832D091505040E695F8
:10579000001CCAF72BD0FE2F29D0660F771F881F59
:1057A000BB1F261737074807AB07B0E809F0BB0B4C
:1057B000802DBF01FF2793585F4F3AF09E3F510560
:1057C00078F00C94AE2C0C94202D5F3FE4F3983EBF
:1057D000D4F3869577956795B795F7959F5FC9F749
:1057E000880F911D9695879597F90895E1E0660FCA
:1057F000771F881FBB1F621773078407BA0720F043
:10580000621B730B840BBA0BEE1F88F7E0950895AB
:1058100029F416F00C94AE2C0C941F2D0C94B42C7F
:105820000E94052DA8F39638A0F707F80F92E89488
:105830002BE33AEA48EB5FE70E94B22D0F920F92FA
:105840000F924DB75EB70F920E94682DECEAF0E020
:105850000E94B72C4F915F91EF91FF91E595EE1F5C
:10586000FF1F49F0FE57E0684427EE0F441FFA95EA
:10587000E1F74195550B0E94322D0F9007FE0C94D5
:10588000262D08950E94052D88F09F5798F0B92F76
:105890009927B751B0F0E1F0660F771F881F991F65
:1058A0001AF0BA95C9F714C0B13091F00E941F2DBB
:1058B000B1E008950C941F2D672F782F8827B85FCB
:1058C00039F0B93FCCF3869577956795B395D9F7BD
:1058D0003EF490958095709561957F4F8F4F9F4FC7
:1058E0000895E89409C097FB3EF4909580957095D3
:1058F00061957F4F8F4F9F4F9923A9F0F92F96E91C
:10590000BB279395F695879577956795B795F11190
:10591000F8CFFAF4BB0F11F460FF1BC06F5F7F4F2D
:105920008F4F9F4F16C0882311F096E911C077233F
:1059300021F09EE8872F762F05C0662371F096E848
:10594000862F70E060E02AF09A95660F771F881F17
:10595000DAF7880F9695879597F9089597F99F67D5
:1059600080E870E060E008959FEF80EC0895DF9399
:10597000CF931F930F93FF92EF92DF927B018C01E5
:10598000689406C0DA2EEF010E94AF2DFE01E89464
:10599000A5912591359145915591A6F3EF010E946E
:1059A000412BFE019701A801DA9469F7DF90EF908F
:1059B000FF900F911F91CF91DF91089500240A94D9
:1059C0001616170618060906089500240A941216DA
:1059D0001306140605060895092E0394000C11F40D
:1059E000882352F0BB0F40F4BF2B11F460FF04C0BA
:1059F0006F5F7F4F8F4F9F4F089557FD9058440F13
:105A0000551F59F05F3F71F04795880F97FB991F1D
:105A100061F09F3F79F087950895121613061406DA
:105A2000551FF2CF4695F1DF08C016161706180667
:105A3000991FF1CF86957105610508940895E89442
:105A4000BB2766277727CB0197F908959B01AC0107
:105A500060E070E080E89FE30C94962B0C94AE2CF1
:105A60000C94112E0E94052DD8F39923C9F3940F9D
:105A7000511DA3F39150504094F059F0882332F017
:105A8000660F771F881F91505040C1F79E3F510508
:105A90002CF7880F911D9695879597F908955F3F8C
:105AA000ACF0983E9CF0BB27869577956795B795A7
:105AB00008F4B1609395C1F7BB0F58F711F460FF7C
:105AC000E8CF6F5F7F4F8F4F9F4FE3CF0C94202D18
:105AD000FA01DC01AA0FBB1F9B01AC01BF5728F4E0
:105AE000222733274427507820C0B75190F4AB2F9A
:105AF0000024469537952795011CA395D2F30020E5
:105B000071F0220F331F441FB395DAF30ED00C94BB
:105B1000292B61307105A0E88A07B94630F49B0152
:105B2000AC016627772788279078309621F020836C
:105B300031834283538308950E94AF2D0C94EC2C43
:105B40000E94DE2C38F00E94E52C20F0952311F005
:105B50000C94AE2C0C94B42C11240C94202D0E9487
:105B6000FD2C70F3959FC1F3950F50E0551F629F78
:105B7000F001729FBB27F00DB11D639FAA27F00DA6
:105B8000B11DAA1F649F6627B00DA11D661F829FCD
:105B90002227B00DA11D621F739FB00DA11D621FB2
:105BA000839FA00D611D221F749F3327A00D611DCF
:105BB000231F849F600D211D822F762F6A2F1124B1
:105BC0009F5750409AF0F1F088234AF0EE0FFF1FE4
:105BD000BB1F661F771F881F91505040A9F79E3F3B
:105BE000510580F00C94AE2C0C94202D5F3FE4F313
:105BF000983ED4F3869577956795B795F795E79591
:105C00009F5FC1F7FE2B880F911D9695879597F999
:105C100008959F930E94212E0F9007FCEE5F0C9435
:105C20004A2E9F3F31F0915020F4879577956795E4
:105C3000B795880F911D9695879597F908950C94BF
:105C4000B42C0E94052DD8F3E894E0E0BB279F57C1
:105C5000F0F02AED3FE049EC06C0EE0FBB0F661FE7
:105C6000771F881F28F0B23A62077307840728F06D
:105C7000B25A620B730B840BE3959A9572F78038D6
:105C800030F49A95BB0F661F771F881FD2F7904894
:105C90000C94132EEF93E0FF07C0A2EA2AED3FE039
:105CA00049EC5FEB0E94412B0E94EC2C0F90039477
:105CB00001FC9058E4EDF0E00C945E2E9F938F93DE
:105CC0007F936F93FF93EF939B01AC010E949C2DF8
:105CD000EF91FF910E94B72C2F913F914F915F91CF
:105CE0000C949C2DDB018F939F930E94E12EBF911A
:105CF000AF91A29F800D911DA39F900DB29F900D1B
:105D000011240895AA1BBB1B51E107C0AA1FBB1F8A
:105D1000A617B70710F0A61BB70B881F991F5A9537
:105D2000A9F780959095BC01CD01089597FB072EAA
:105D300016F4009407D077FD09D00E94822E07FC4C
:105D400005D03EF4909581959F4F0895709561958B
:105D50007F4F0895A1E21A2EAA1BBB1BFD010DC0A7
:105D6000AA1FBB1FEE1FFF1FA217B307E407F5070B
:105D700020F0A21BB30BE40BF50B661F771F881FE7
:105D8000991F1A9469F760957095809590959B017D
:105D9000AC01BD01CF010895EE0FFF1F0590F491F6
:105DA000E02D0994A29FB001B39FC001A39F700D85
:105DB000811D1124911DB29F700D811D1124911D13
:105DC00008950E94D22EA59F900DB49F900DA49F80
:105DD000800D911D11240895FC014150504030F078
:105DE00001900616D1F73197CF010895882799279A
:105DF0000895F999FECF92BD81BDF89A992780B593
:105E00000895A6E1B0E044E050E00C94332FA8E1FF
:105E1000B0E042E050E00C94332F262FF999FECFEA
:105E200092BD81BDF89A019700B4021639F01FBAED
:105E300020BD0FB6F894FA9AF99A0FBE089503960A
:105E4000272F0E940E2F0E940D2F252F0E940E2F0C
:105E5000242F0C940E2F0196272F0E940E2F0C94A6
:105E60000D2FDC01CB01FC01F999FECF06C0F2BD7C
:105E7000E1BDF89A319600B40D9241505040B8F708
:065E80000895F894FFCF25
:105E8600014F01015001055101010201191A1B1CA4
:105E96001D1E1F202122F3014E24C32451248D24CC
:105EA600522401F6F73133323697C6349294000005
:045EB60000000000E8
:00000001FF
